{
  "contractName": "Points",
  "abi": [
    {
      "constant": true,
      "inputs": [],
      "name": "name",
      "outputs": [
        {
          "name": "",
          "type": "string"
        }
      ],
      "payable": false,
      "stateMutability": "view",
      "type": "function",
      "signature": "0x06fdde03"
    },
    {
      "constant": true,
      "inputs": [],
      "name": "decimals",
      "outputs": [
        {
          "name": "",
          "type": "uint8"
        }
      ],
      "payable": false,
      "stateMutability": "view",
      "type": "function",
      "signature": "0x313ce567"
    },
    {
      "constant": true,
      "inputs": [],
      "name": "symbol",
      "outputs": [
        {
          "name": "",
          "type": "string"
        }
      ],
      "payable": false,
      "stateMutability": "view",
      "type": "function",
      "signature": "0x95d89b41"
    },
    {
      "inputs": [],
      "payable": false,
      "stateMutability": "nonpayable",
      "type": "constructor",
      "signature": "constructor"
    },
    {
      "anonymous": false,
      "inputs": [
        {
          "indexed": false,
          "name": "value",
          "type": "uint256"
        }
      ],
      "name": "Mint",
      "type": "event",
      "signature": "0x07883703ed0e86588a40d76551c92f8a4b329e3bf19765e0e6749473c1a84665"
    },
    {
      "anonymous": false,
      "inputs": [
        {
          "indexed": true,
          "name": "to",
          "type": "address"
        },
        {
          "indexed": false,
          "name": "value",
          "type": "uint256"
        }
      ],
      "name": "Deliver",
      "type": "event",
      "signature": "0x224d9aaa519a039c1994e603f422cd3d69d47cc426bd88b0d91484e96354e69d"
    },
    {
      "anonymous": false,
      "inputs": [
        {
          "indexed": true,
          "name": "from",
          "type": "address"
        },
        {
          "indexed": false,
          "name": "value",
          "type": "uint256"
        }
      ],
      "name": "Takeover",
      "type": "event",
      "signature": "0xf0b600d9968ff148717397b4acdcf188a17d2937fc819dc639fca3433e706099"
    },
    {
      "anonymous": false,
      "inputs": [
        {
          "indexed": true,
          "name": "from",
          "type": "address"
        },
        {
          "indexed": true,
          "name": "to",
          "type": "address"
        },
        {
          "indexed": false,
          "name": "value",
          "type": "uint256"
        }
      ],
      "name": "Redeem",
      "type": "event",
      "signature": "0xd12200efa34901b99367694174c3b0d32c99585fdf37c7c26892136ddd0836d9"
    },
    {
      "anonymous": false,
      "inputs": [
        {
          "indexed": true,
          "name": "from",
          "type": "address"
        },
        {
          "indexed": true,
          "name": "to",
          "type": "address"
        },
        {
          "indexed": false,
          "name": "value",
          "type": "uint256"
        }
      ],
      "name": "Issue",
      "type": "event",
      "signature": "0x4b2682685b046a3dae8e75ff49b82fa703e366056a43c6a791411011134f4f5d"
    },
    {
      "anonymous": false,
      "inputs": [
        {
          "indexed": true,
          "name": "from",
          "type": "address"
        },
        {
          "indexed": true,
          "name": "to",
          "type": "address"
        },
        {
          "indexed": false,
          "name": "value",
          "type": "uint256"
        }
      ],
      "name": "Transfer",
      "type": "event",
      "signature": "0xddf252ad1be2c89b69c2b068fc378daa952ba7f163c4a11628f55a4df523b3ef"
    },
    {
      "constant": true,
      "inputs": [],
      "name": "totalSupply",
      "outputs": [
        {
          "name": "",
          "type": "uint256"
        }
      ],
      "payable": false,
      "stateMutability": "view",
      "type": "function",
      "signature": "0x18160ddd"
    },
    {
      "constant": true,
      "inputs": [
        {
          "name": "who",
          "type": "address"
        }
      ],
      "name": "quotaOf",
      "outputs": [
        {
          "name": "",
          "type": "uint256"
        }
      ],
      "payable": false,
      "stateMutability": "view",
      "type": "function",
      "signature": "0xef23b3a3"
    },
    {
      "constant": true,
      "inputs": [
        {
          "name": "who",
          "type": "address"
        }
      ],
      "name": "balanceOf",
      "outputs": [
        {
          "name": "",
          "type": "uint256"
        }
      ],
      "payable": false,
      "stateMutability": "view",
      "type": "function",
      "signature": "0x70a08231"
    },
    {
      "constant": true,
      "inputs": [
        {
          "name": "who",
          "type": "address"
        }
      ],
      "name": "numberOf",
      "outputs": [
        {
          "name": "",
          "type": "uint256"
        }
      ],
      "payable": false,
      "stateMutability": "view",
      "type": "function",
      "signature": "0x0f0ed9bd"
    },
    {
      "constant": false,
      "inputs": [
        {
          "name": "value",
          "type": "uint256"
        }
      ],
      "name": "mint",
      "outputs": [
        {
          "name": "",
          "type": "bool"
        }
      ],
      "payable": false,
      "stateMutability": "nonpayable",
      "type": "function",
      "signature": "0xa0712d68"
    },
    {
      "constant": false,
      "inputs": [
        {
          "name": "to",
          "type": "address"
        },
        {
          "name": "value",
          "type": "uint256"
        }
      ],
      "name": "deliver",
      "outputs": [
        {
          "name": "",
          "type": "bool"
        }
      ],
      "payable": false,
      "stateMutability": "nonpayable",
      "type": "function",
      "signature": "0x3a537b0c"
    },
    {
      "constant": false,
      "inputs": [
        {
          "name": "from",
          "type": "address"
        },
        {
          "name": "to",
          "type": "address"
        },
        {
          "name": "value",
          "type": "uint256"
        }
      ],
      "name": "issue",
      "outputs": [
        {
          "name": "",
          "type": "bool"
        }
      ],
      "payable": false,
      "stateMutability": "nonpayable",
      "type": "function",
      "signature": "0xb6139992"
    },
    {
      "constant": false,
      "inputs": [
        {
          "name": "from",
          "type": "address"
        },
        {
          "name": "to",
          "type": "address"
        },
        {
          "name": "value",
          "type": "uint256"
        }
      ],
      "name": "transfer",
      "outputs": [
        {
          "name": "",
          "type": "bool"
        }
      ],
      "payable": false,
      "stateMutability": "nonpayable",
      "type": "function",
      "signature": "0xbeabacc8"
    },
    {
      "constant": false,
      "inputs": [
        {
          "name": "from",
          "type": "address"
        },
        {
          "name": "to",
          "type": "address"
        },
        {
          "name": "value",
          "type": "uint256"
        }
      ],
      "name": "redeem",
      "outputs": [
        {
          "name": "",
          "type": "bool"
        }
      ],
      "payable": false,
      "stateMutability": "nonpayable",
      "type": "function",
      "signature": "0x0e6dfcd5"
    },
    {
      "constant": false,
      "inputs": [
        {
          "name": "from",
          "type": "address"
        },
        {
          "name": "value",
          "type": "uint256"
        },
        {
          "name": "value",
          "type": "uint256"
        }
      ],
      "name": "takeover",
      "outputs": [
        {
          "name": "",
          "type": "bool"
        }
      ],
      "payable": false,
      "stateMutability": "nonpayable",
      "type": "function",
      "signature": "0xeab3a0b3"
    },
    {
      "constant": false,
      "inputs": [
        {
          "name": "from",
          "type": "address"
        },
        {
          "name": "to",
          "type": "address"
        },
        {
          "name": "value",
          "type": "uint256"
        }
      ],
      "name": "redeem",
      "outputs": [
        {
          "name": "",
          "type": "bool"
        }
      ],
      "payable": false,
      "stateMutability": "nonpayable",
      "type": "function",
      "signature": "0x0e6dfcd5"
    },
    {
      "constant": false,
      "inputs": [
        {
          "name": "from",
          "type": "address"
        },
        {
          "name": "value",
          "type": "uint256"
        }
      ],
      "name": "takeover",
      "outputs": [
        {
          "name": "",
          "type": "bool"
        }
      ],
      "payable": false,
      "stateMutability": "nonpayable",
      "type": "function",
      "signature": "0x5ec4a7b4"
    }
  ],
  "bytecode": "0x60806040526040805190810160405280600c81526020017f52657761726420506f696e740000000000000000000000000000000000000000815250600190805190602001906200005192919062000176565b506040805190810160405280600281526020017f5250000000000000000000000000000000000000000000000000000000000000815250600290805190602001906200009f92919062000176565b506012600360006101000a81548160ff021916908360ff160217905550348015620000c957600080fd5b50336000806101000a81548173ffffffffffffffffffffffffffffffffffffffff021916908373ffffffffffffffffffffffffffffffffffffffff1602179055506000600560008060009054906101000a900473ffffffffffffffffffffffffffffffffffffffff1673ffffffffffffffffffffffffffffffffffffffff1673ffffffffffffffffffffffffffffffffffffffff1681526020019081526020016000208190555062000225565b828054600181600116156101000203166002900490600052602060002090601f016020900481019282601f10620001b957805160ff1916838001178555620001ea565b82800160010185558215620001ea579182015b82811115620001e9578251825591602001919060010190620001cc565b5b509050620001f99190620001fd565b5090565b6200022291905b808211156200021e57600081600090555060010162000204565b5090565b90565b6116a580620002356000396000f3fe6080604052600436106100c5576000357c0100000000000000000000000000000000000000000000000000000000900463ffffffff16806306fdde03146100ca5780630e6dfcd51461015a5780630f0ed9bd146101ed57806318160ddd14610252578063313ce5671461027d5780633a537b0c146102ae5780635ec4a7b41461032157806370a082311461039457806395d89b41146103f9578063a0712d6814610489578063b6139992146104dc578063beabacc81461056f578063ef23b3a314610602575b600080fd5b3480156100d657600080fd5b506100df610667565b6040518080602001828103825283818151815260200191508051906020019080838360005b8381101561011f578082015181840152602081019050610104565b50505050905090810190601f16801561014c5780820380516001836020036101000a031916815260200191505b509250505060405180910390f35b34801561016657600080fd5b506101d36004803603606081101561017d57600080fd5b81019080803573ffffffffffffffffffffffffffffffffffffffff169060200190929190803573ffffffffffffffffffffffffffffffffffffffff16906020019092919080359060200190929190505050610705565b604051808215151515815260200191505060405180910390f35b3480156101f957600080fd5b5061023c6004803603602081101561021057600080fd5b81019080803573ffffffffffffffffffffffffffffffffffffffff169060200190929190505050610855565b6040518082815260200191505060405180910390f35b34801561025e57600080fd5b5061026761089e565b6040518082815260200191505060405180910390f35b34801561028957600080fd5b506102926108a8565b604051808260ff1660ff16815260200191505060405180910390f35b3480156102ba57600080fd5b50610307600480360360408110156102d157600080fd5b81019080803573ffffffffffffffffffffffffffffffffffffffff169060200190929190803590602001909291905050506108bb565b604051808215151515815260200191505060405180910390f35b34801561032d57600080fd5b5061037a6004803603604081101561034457600080fd5b81019080803573ffffffffffffffffffffffffffffffffffffffff16906020019092919080359060200190929190505050610aa9565b604051808215151515815260200191505060405180910390f35b3480156103a057600080fd5b506103e3600480360360208110156103b757600080fd5b81019080803573ffffffffffffffffffffffffffffffffffffffff169060200190929190505050610c02565b6040518082815260200191505060405180910390f35b34801561040557600080fd5b5061040e610c4b565b6040518080602001828103825283818151815260200191508051906020019080838360005b8381101561044e578082015181840152602081019050610433565b50505050905090810190601f16801561047b5780820380516001836020036101000a031916815260200191505b509250505060405180910390f35b34801561049557600080fd5b506104c2600480360360208110156104ac57600080fd5b8101908080359060200190929190505050610ce9565b604051808215151515815260200191505060405180910390f35b3480156104e857600080fd5b50610555600480360360608110156104ff57600080fd5b81019080803573ffffffffffffffffffffffffffffffffffffffff169060200190929190803573ffffffffffffffffffffffffffffffffffffffff16906020019092919080359060200190929190505050610ef0565b604051808215151515815260200191505060405180910390f35b34801561057b57600080fd5b506105e86004803603606081101561059257600080fd5b81019080803573ffffffffffffffffffffffffffffffffffffffff169060200190929190803573ffffffffffffffffffffffffffffffffffffffff169060200190929190803590602001909291905050506110c6565b604051808215151515815260200191505060405180910390f35b34801561060e57600080fd5b506106516004803603602081101561062557600080fd5b81019080803573ffffffffffffffffffffffffffffffffffffffff169060200190929190505050611216565b6040518082815260200191505060405180910390f35b60018054600181600116156101000203166002900480601f0160208091040260200160405190810160405280929190818152602001828054600181600116156101000203166002900480156106fd5780601f106106d2576101008083540402835291602001916106fd565b820191906000526020600020905b8154815290600101906020018083116106e057829003601f168201915b505050505081565b60008060009054906101000a900473ffffffffffffffffffffffffffffffffffffffff1673ffffffffffffffffffffffffffffffffffffffff163373ffffffffffffffffffffffffffffffffffffffff161415156107cb576040517f08c379a00000000000000000000000000000000000000000000000000000000081526004018080602001828103825260128152602001807f5065726d697373696f6e2064656e6965642e000000000000000000000000000081525060200191505060405180910390fd5b6000821115156107da57600080fd5b6107e584848461125f565b8273ffffffffffffffffffffffffffffffffffffffff168473ffffffffffffffffffffffffffffffffffffffff167fd12200efa34901b99367694174c3b0d32c99585fdf37c7c26892136ddd0836d9846040518082815260200191505060405180910390a3600190509392505050565b6000600660008373ffffffffffffffffffffffffffffffffffffffff1673ffffffffffffffffffffffffffffffffffffffff168152602001908152602001600020549050919050565b6000600754905090565b600360009054906101000a900460ff1681565b60008060009054906101000a900473ffffffffffffffffffffffffffffffffffffffff1673ffffffffffffffffffffffffffffffffffffffff163373ffffffffffffffffffffffffffffffffffffffff16141515610981576040517f08c379a00000000000000000000000000000000000000000000000000000000081526004018080602001828103825260128152602001807f5065726d697373696f6e2064656e6965642e000000000000000000000000000081525060200191505060405180910390fd5b60008211151561099057600080fd5b6109bc6000809054906101000a900473ffffffffffffffffffffffffffffffffffffffff16848461125f565b610a0e82600460008673ffffffffffffffffffffffffffffffffffffffff1673ffffffffffffffffffffffffffffffffffffffff1681526020019081526020016000205461163690919063ffffffff16565b600460008573ffffffffffffffffffffffffffffffffffffffff1673ffffffffffffffffffffffffffffffffffffffff168152602001908152602001600020819055508273ffffffffffffffffffffffffffffffffffffffff167f224d9aaa519a039c1994e603f422cd3d69d47cc426bd88b0d91484e96354e69d836040518082815260200191505060405180910390a26001905092915050565b60008060009054906101000a900473ffffffffffffffffffffffffffffffffffffffff1673ffffffffffffffffffffffffffffffffffffffff163373ffffffffffffffffffffffffffffffffffffffff16141515610b6f576040517f08c379a00000000000000000000000000000000000000000000000000000000081526004018080602001828103825260128152602001807f5065726d697373696f6e2064656e6965642e000000000000000000000000000081525060200191505060405180910390fd5b600082111515610b7e57600080fd5b610baa836000809054906101000a900473ffffffffffffffffffffffffffffffffffffffff168461125f565b8273ffffffffffffffffffffffffffffffffffffffff167ff0b600d9968ff148717397b4acdcf188a17d2937fc819dc639fca3433e706099836040518082815260200191505060405180910390a26001905092915050565b6000600560008373ffffffffffffffffffffffffffffffffffffffff1673ffffffffffffffffffffffffffffffffffffffff168152602001908152602001600020549050919050565b60028054600181600116156101000203166002900480601f016020809104026020016040519081016040528092919081815260200182805460018160011615610100020316600290048015610ce15780601f10610cb657610100808354040283529160200191610ce1565b820191906000526020600020905b815481529060010190602001808311610cc457829003601f168201915b505050505081565b60008060009054906101000a900473ffffffffffffffffffffffffffffffffffffffff1673ffffffffffffffffffffffffffffffffffffffff163373ffffffffffffffffffffffffffffffffffffffff16141515610daf576040517f08c379a00000000000000000000000000000000000000000000000000000000081526004018080602001828103825260128152602001807f5065726d697373696f6e2064656e6965642e000000000000000000000000000081525060200191505060405180910390fd5b600082111515610dbe57600080fd5b610e3182600560008060009054906101000a900473ffffffffffffffffffffffffffffffffffffffff1673ffffffffffffffffffffffffffffffffffffffff1673ffffffffffffffffffffffffffffffffffffffff1681526020019081526020016000205461163690919063ffffffff16565b600560008060009054906101000a900473ffffffffffffffffffffffffffffffffffffffff1673ffffffffffffffffffffffffffffffffffffffff1673ffffffffffffffffffffffffffffffffffffffff16815260200190815260200160002081905550610eaa8260075461163690919063ffffffff16565b6007819055507f07883703ed0e86588a40d76551c92f8a4b329e3bf19765e0e6749473c1a84665826040518082815260200191505060405180910390a160019050919050565b60008060009054906101000a900473ffffffffffffffffffffffffffffffffffffffff1673ffffffffffffffffffffffffffffffffffffffff163373ffffffffffffffffffffffffffffffffffffffff16141515610fb6576040517f08c379a00000000000000000000000000000000000000000000000000000000081526004018080602001828103825260128152602001807f5065726d697373696f6e2064656e6965642e000000000000000000000000000081525060200191505060405180910390fd5b600082111515610fc557600080fd5b610fd084848461125f565b6001600660008673ffffffffffffffffffffffffffffffffffffffff1673ffffffffffffffffffffffffffffffffffffffff1681526020019081526020016000205401600660008673ffffffffffffffffffffffffffffffffffffffff1673ffffffffffffffffffffffffffffffffffffffff168152602001908152602001600020819055508273ffffffffffffffffffffffffffffffffffffffff168473ffffffffffffffffffffffffffffffffffffffff167f4b2682685b046a3dae8e75ff49b82fa703e366056a43c6a791411011134f4f5d846040518082815260200191505060405180910390a3600190509392505050565b60008060009054906101000a900473ffffffffffffffffffffffffffffffffffffffff1673ffffffffffffffffffffffffffffffffffffffff163373ffffffffffffffffffffffffffffffffffffffff1614151561118c576040517f08c379a00000000000000000000000000000000000000000000000000000000081526004018080602001828103825260128152602001807f5065726d697373696f6e2064656e6965642e000000000000000000000000000081525060200191505060405180910390fd5b60008211151561119b57600080fd5b6111a684848461125f565b8273ffffffffffffffffffffffffffffffffffffffff168473ffffffffffffffffffffffffffffffffffffffff167fddf252ad1be2c89b69c2b068fc378daa952ba7f163c4a11628f55a4df523b3ef846040518082815260200191505060405180910390a3600190509392505050565b6000600460008373ffffffffffffffffffffffffffffffffffffffff1673ffffffffffffffffffffffffffffffffffffffff168152602001908152602001600020549050919050565b600073ffffffffffffffffffffffffffffffffffffffff168273ffffffffffffffffffffffffffffffffffffffff161415151561129b57600080fd5b6112ed81600560008673ffffffffffffffffffffffffffffffffffffffff1673ffffffffffffffffffffffffffffffffffffffff1681526020019081526020016000205461165790919063ffffffff16565b600560008573ffffffffffffffffffffffffffffffffffffffff1673ffffffffffffffffffffffffffffffffffffffff168152602001908152602001600020819055506000600460008473ffffffffffffffffffffffffffffffffffffffff1673ffffffffffffffffffffffffffffffffffffffff168152602001908152602001600020541415611412576113ca81600560008573ffffffffffffffffffffffffffffffffffffffff1673ffffffffffffffffffffffffffffffffffffffff1681526020019081526020016000205461163690919063ffffffff16565b600560008473ffffffffffffffffffffffffffffffffffffffff1673ffffffffffffffffffffffffffffffffffffffff16815260200190815260200160002081905550611631565b600061146682600560008673ffffffffffffffffffffffffffffffffffffffff1673ffffffffffffffffffffffffffffffffffffffff1681526020019081526020016000205461163690919063ffffffff16565b9050600460008473ffffffffffffffffffffffffffffffffffffffff1673ffffffffffffffffffffffffffffffffffffffff16815260200190815260200160002054811115611599576000600460008573ffffffffffffffffffffffffffffffffffffffff1673ffffffffffffffffffffffffffffffffffffffff168152602001908152602001600020548203905061150a8160075461165790919063ffffffff16565b600781905550600460008573ffffffffffffffffffffffffffffffffffffffff1673ffffffffffffffffffffffffffffffffffffffff16815260200190815260200160002054600560008673ffffffffffffffffffffffffffffffffffffffff1673ffffffffffffffffffffffffffffffffffffffff168152602001908152602001600020819055505061162f565b6115eb82600560008673ffffffffffffffffffffffffffffffffffffffff1673ffffffffffffffffffffffffffffffffffffffff1681526020019081526020016000205461163690919063ffffffff16565b600560008573ffffffffffffffffffffffffffffffffffffffff1673ffffffffffffffffffffffffffffffffffffffff168152602001908152602001600020819055505b505b505050565b600080828401905083811015151561164d57600080fd5b8091505092915050565b600082821115151561166857600080fd5b60008284039050809150509291505056fea165627a7a7230582087d67de692c3e2516a7818fdb63574e651c1a110d68834d153656e4540c6a8fc0029",
  "source": "pragma solidity >=0.4.22 <0.7.0;\n\nimport \"./SafeMath.sol\";\n\ncontract Points {\n    using SafeMath for uint256;\n    \n    address private owner; // the owner of the contract, system account\n    string public name = \"Reward Point\"; \n    string public symbol = \"RP\"; \n    uint8 public decimals = 18;\n    mapping (address => uint256) private _quota; // the quota of every company\n    mapping (address => uint256) private _balances; \n    //mapping (address => uint256) private _identity; // the identity of the account, 1 for users, 2 for point company and 3 for goods company\n    mapping (address => uint256) private _transactions; // the number of transactions a company do\n    uint256 private _totalSupply;\n    \n    \n    constructor() public {\n        owner = msg.sender;\n        _balances[owner] = 0; //balance of the system account \n    }\n    \n    modifier onlyOwner() {\n        require(msg.sender == owner, \"Permission denied.\");\n        _;\n    }\n    \n    function totalSupply() external view returns (uint256) {\n        return _totalSupply;\n    }\n\n    function quotaOf(address who) external view returns (uint256) {\n        return _quota[who];\n    }\n    \n    function balanceOf(address who) public view returns (uint256) {\n        return _balances[who];\n    }\n    \n    /*function identityOf(address who) external view returns (uint256) {\n        return _identity[who];\n    }*/\n    \n    function numberOf(address who) external view returns (uint256) {\n        return _transactions[who];\n    }\n    \n    // New user register to the system\n    /*function register(address who, uint256 identity) external onlyOwner returns (bool){\n        require(who != address(0));\n        _balances[who] = 0;\n        _quota[who] = 0;\n        _identity[who] = identity;\n        _transactions[who] = 0;\n        return true;\n    }*/\n    \n    // when there is a company give real money to the system\n    // system account will mint new points\n    function mint(uint256 value) external onlyOwner returns (bool){\n        require(value > 0);\n        _balances[owner] = _balances[owner].add(value);\n        _totalSupply = _totalSupply.add(value);\n        emit Mint(value);\n        return true;\n    }\n    \n    // system -> company\n    function deliver(address to, uint256 value) external onlyOwner returns (bool){\n        //require(_identity[to] == 2);\n        require(value > 0);\n        _transfer(owner, to, value);\n        _quota[to] = _quota[to].add(value);\n        emit Deliver(to, value);\n        return true;\n    }\n    \n    // point provider -> user\n    function issue(address from, address to, uint256 value) external onlyOwner returns (bool){\n        //require(_identity[from] == 2 && _identity[to] == 1);\n        require(value > 0);\n        _transfer(from, to, value);\n        _transactions[from] = _transactions[from] + 1;\n        emit Issue(from, to, value);\n        return true;\n    }\n    \n    // goods provider -> point provider\n    function transfer(address from, address to, uint256 value) external onlyOwner returns (bool){\n        //require(_identity[from] == 3 && _identity[to] == 2);\n        require(value > 0);\n        _transfer(from, to, value);\n        emit Transfer(from, to, value);\n        return true;\n    }\n    \n    // user --points--> goods provider\n    function redeem(address from, address to, uint256 value) external onlyOwner returns (bool){\n        //require(_identity[from] == 1 && _identity[to] == 3);\n        require(value > 0);\n        _transfer(from, to, value);\n        emit Redeem(from, to, value);\n        return true;\n    }\n    \n    // company -> system\n    function takeover(address from, uint256 value) external onlyOwner returns (bool){\n        //require(_identity[from] == 3);\n        require(value > 0);\n        _transfer(from, owner, value);\n        emit Takeover(from, value);\n        return true;\n    }\n    \n    // system set the quota of the company\n    /*\n    function setQuota(address who, uint256 value) external onlyOwner returns (bool){\n        if(value > _quota[who]){\n            uint256 temp = value - _quota[who];\n            _balances[who] = _balances[who].add(temp);\n            _totalSupply = _totalSupply.add(temp);\n        }\n        else{\n            if(_balances[who] > value){\n                uint256 temp = _balances[who] - value;\n                _totalSupply = _totalSupply.sub(temp);\n                _balances[who] = value;\n            }\n        }\n        _quota[who] = value;\n        return true;\n    }*/\n    \n    function _transfer(address from, address to, uint256 value) internal {\n        require(to != address(0));\n        _balances[from] = _balances[from].sub(value);\n        if(_quota[to] == 0) _balances[to] = _balances[to].add(value);\n        else{\n            uint256 temp = _balances[to].add(value);\n            if(temp > _quota[to]){\n                uint256 temp1 = temp - _quota[to];\n                _totalSupply = _totalSupply.sub(temp1);\n                _balances[to] = _quota[to];\n            }\n            else{\n                _balances[to] = _balances[to].add(value);\n            }\n        }        \n    }\n    \n    //mint: system +\n    event Mint(uint256 value);\n    //deliver: system -> company\n    event Deliver(address indexed to, uint256 value);\n    //takeover: company -> system\n    event Takeover(address indexed from, uint256 value);\n    //redeem: user -> goods provider\n    event Redeem(address indexed from, address indexed to, uint256 value);\n    //issue: point provider -> user\n    event Issue(address indexed from, address indexed to, uint256 value);\n    //transfer: company -> company\n    event Transfer(address indexed from, address indexed to, uint256 value);\n}",
  "sourcePath": "/home/chain/myapp/contracts/Points.sol",
  "compiler": {
    "name": "solc",
    "version": "0.5.0+commit.1d4f565a.Emscripten.clang"
  },
  "schemaVersion": "3.0.8",
  "updatedAt": "2019-08-07T07:06:48.187Z",
  "devdoc": {
    "methods": {}
  },
  "userdoc": {
    "methods": {}
  }
}